:1013E10020002D003A00202020004F4646004F4E9D
:1013F100200020200054494D4520495320555020BC
:1014010020202020200020202020202020202020FB
:10141100202020202020202020005072657373207E
:101421007061757365206B65790054656D706572C7
:1014310061747572653A2020202020002020202030
:10144100200053746F7057617463683A2020202024
:10145100202020202020202000636F756E742064DE
:101461006F776E3A202020202020004175746F4351
:101471006F727265637420596F724E006F6B210039
:101481005468657265206973206120626F6D623AEC
:101491002020202020200030303A00F889F8F4F98B
:1014A10059F9B9FA13FA68FAB9FB04FB4CFB90FB42
:1014B100CFFC0CFC44FC7AFCADFCDCFD0AFD34FDE8
:1014C1005CFD82FDA6FDC8FDE8FE06FE22FE3DFE96
:1014D10056FE6EFE85FE9AFEAEFEC1FED3FEE4FE12
:1014E100F4FF0307020702090407040C040B0807B1
:1014F100020702090407040E040C08070407041379
:101501000410040C040B0409041106110410040C4A
:05151100040E040C08AB
:1019E600061D000000000000067B0000000000004D
:1019F600010A0A0134010110000111000128000149
:101A06002B00012A00042300000000013601020811
:021A16000000CE
:100FCE00121CEE7BFF7A1379E17D0D7F01121D9BC2
:100FDE00E53AFB3395E0FA7564027D017F01121D3F
:100FEE00F97BFF7A1379E37D037F01121D9BE53BAD
:100FFE00FB3395E0FA7564027D047F01121DF97BC7
:10100E00FF7A1379E37D067F01121D9BE53CFB33CE
:10101E0095E0FA7564027D077F01121DF9E53DFB2F
:10102E003395E0FA7564027D017F02121DF97BFF94
:10103E007A1379E57D037F02121D9BE53EFB339506
:10104E00E0FA7564027D047F02121DF97BFF7A13AC
:10105E0079E57D067F02121D9BE53FFB3395E0FA95
:10106E007564027D077F02121DF97BFF7A1379E109
:10107E007D097F01121D9B7BFF7A1379E17D097F2C
:10108E0002121D9B7BFF7A1379E77D0A7F02121DE8
:10109E009BE53D7011E53E700DE53F70097F587E72
:1010AE0002121DBE050FD3E50F648094864003E443
:1010BE00F50FE50F75F003A42448F8860308E6FA49
:1010CE0008E6F97D0A7F01121D9B7884E6FF640213
:1010DE006004EFB40305E4F536F5347890E67BFF53
:1010EE0070067A1379EB80047A1379EF7D0E7F0107
:1010FE00121D9B7F057E00121DBEE53E702BE53F47
:10110E007027F532F533D2A07F027E00121DBEC2CB
:10111E00A07F027E00121DBE0533E533700205323C
:10112E00C39450E532940040DD7884E66404600692
:10113E007888E6B44514E4F536E51BB40105E4F50C
:0B114E001B8003751B01E47888F6226B
:1008A9007BFF7A1379E17D097F01121D9B7BFF7A1A
:1008B9001379E17D0D7F01121D9B7BFF7A1379E787
:1008C9007D097F02121D9B7888E6FF6443600778E3
:1008D90084E6FEB40211E4F5360529E52975F00729
:1008E9008485F029020AE5EFB4400D1529E529B4FC
:1008F900FF03752906020AE57888E6FF640960089E
:10090900EE640360030209F7E4F536E529B4060449
:10091900050F800D743A2529F806E529B402020568
:100929000FE53B64016023E53B6403601DE53B641F
:10093900056017E53B64076011E53B6408600BE55A
:100949003B640A6005E53BB40C0CD3E53C64809438
:100959009F4003753C01E53B64046011E53B640677
:10096900600BE53B64096005E53BB40B0CD3E53C42
:100979006480949E4003753C01D3E53B6480948C6C
:100989004005753B01053AD3E53C6480949C4015CC
:10099900E53A75F004120315AEF0EE6008E53BB4D4
:1009A9000203753C01D3E53C6480949D4015E53A0A
:1009B90075F004120315AEF0EE7008E53BB40203BE
:1009C900753C01D3E53D648094974003E4F53DE52A
:1009D9003EB43C03E4F53EE53FB43C03E4F53FD3C4
:1009E900E50F648094864003E4F50F020AE5EF649D
:1009F90015600A7884E664046003020AEBE4F536BC
:100A0900E529B40604150F800D743A2529F816E571
:100A190029B40202150FE53B64016023E53B640339
:100A2900601DE53B64056017E53B64076011E53B24
:100A39006408600BE53B640A6005E53BB40C0CC334
:100A4900E53C648094815003753C1FE53B64046078
:100A590011E53B6406600BE53B64096005E53BB4C1
:100A69000B0CC3E53C648094815003753C1EC3E5BF
:100A79003B648094815005753B0C153AC3E53C6491
:100A89008094815015E53A75F004120315AFF0EF23
:100A99006008E53BB40203753C1CC3E53C648094E3
:100AA900815015E53A75F004120315AFF0EF70089F
:100AB900E53BB40203753C1DC3E53D648094805059
:100AC90003753D17E53EB4FF03753E3BE53FB4FFB3
:100AD90003753F3BE50FB4FF03750F06E47888F60D
:100AE9008003753501E5297015E50C450B700F7B01
:100AF900FF7A1379F37D017F01121D9B8011E53A7D
:100B0900FB3395E0FA7564027D017F01121DF9E559
:100B190029B40115E50C450B700F7BFF7A1379F3A6
:100B29007D047F01121D9B8011E53BFB3395E0FAA3
:100B39007564027D047F01121DF9E529B40215E5EA
:100B49000C450B700F7BFF7A1379F37D077F011238
:100B59001D9B8011E53CFB3395E0FA7564027D0726
:100B69007F01121DF9E529B40315E50C450B700F3A
:100B79007BFF7A1379F37D017F02121D9B8011E5BA
:100B89003DFB3395E0FA7564027D017F02121DF980
:100B9900E529B40415E50C450B700F7BFF7A137931
:100BA900F37D047F02121D9B8011E53EFB3395E026
:100BB900FA7564027D047F02121DF9E529B4051551
:100BC900E50C450B700F7BFF7A1379F37D077F02E4
:100BD900121D9B8011E53FFB3395E0FA7564027D98
:100BE900077F02121DF9E529B4060EE50C450B70C5
:100BF900087BFF7A1379E78011E50F75F003A424C8
:100C090048F8860308E6FA08E6F97D0A7F01121D0D
:100C19009BE50C6401450B7022788C76017F0A7E76
:100C290000121DBE12197E7884A607788C06E6D3B9
:100C3900941940E9E4F50BF50C8027E50C450B7098
:100C490021788D76017F147E00121DBE12197E78DF
:100C590084A607788D06E6D3941940E9750B0075CB
:100C69000C017BFF7A1379E37D037F01121D9B7BC6
:100C7900FF7A1379E37D067F01121D9B7BFF7A13AF
:100C890079E57D037F02121D9B7BFF7A1379E57D50
:090C9900067F02121D9B021AF0F5
:1016ED00E53A787B6660030217C0E53B0866600348
:1016FD000217C0E53C086660030217C0E53D0866A9
:10170D0060030217C0E53E086660030217C0E53F9F
:10171D00086660030217C07890E664016003021743
:10172D00C0E4F532F533D2A07F0A7E00121DBEC291
:10173D00A07F057E00121DBE0533E5337002053214
:10174D00C39419E532940040DD7BFF7A1379F67D61
:10175D00017F01121D9BE50C450B7BFF70067A1472
:10176D00790780047A14791B7D017F02121D9BE598
:10177D000C6401450B700E7FC27E01121DBEE4F597
:10178D000BF50C8013E50C450B700D7FC27E01121D
:10179D001DBE750B00750C017884E66401600A7836
:1017AD0088E66444600302172EE4F5367890F6E47B
:0417BD007888F62210
:101BD500E4F532F533AF33743A2FF8E6FE747B2F14
:101BE500F8A6060533E53370020532640745327001
:101BF500E4788BA60F78857604789006E65401F68E
:0B1C05007FEE7E02121DBE753401222E
:1004A7007BFF7A1379E17D097F01121D9B7BFF7A20
:1004B7001379E17D0D7F01121D9B7BFF7A1379E78D
:1004C7007D097F02121D9B7888E6FF6443600778E9
:1004D70084E6FEB40210E4F536788506E675F00684
:1004E70084A6F00206E1EFB4400C788516E6B4FF67
:1004F7000276050206E17888E6FF64096008EE6483
:100507000360030205F3E4F5367885E6FEB40602D8
:100517008009747B2EF806EEB40203788B06787C8C
:10052700E6FE6401601DEE64036018EE6405601367
:10053700EE6407600EEE64086009EE640A6004EE7C
:10054700B40C0CD3787DE66480949F4002760178E2
:100557007CE6FE6404600EEE64066009EE640960E2
:1005670004EEB40B0CD3787DE66480949E4002764B
:1005770001D3787CE66480948C400476011806D316
:10058700787DE66480949C4018787BE6FE75F004DD
:10059700120315AEF0EE6009787CE6B40203087624
:1005A70001D3787DE66480949D4018787BE6FE75DC
:1005B700F004120315AEF0EE7009787CE6B402037E
:1005C700087601D3787EE6648094974002E4F67853
:1005D7007FE6B43C02E4F67880E6B43C02E4F678C1
:1005E7008BE6D394064002E4F60206E1EF64156059
:1005F7000A7884E6640460030206E7E4F536788542
:10060700E6FFB406028009747B2FF816EFB40203E5
:10061700788B16787CE6FF6401601DEF6403601831
:10062700EF64056013EF6407600EEF64086009EF7D
:10063700640A6004EFB40C0CC3787DE6648094818F
:100647005002761F787CE6FF6404600EEF64066054
:1006570009EF64096004EFB40B0CC3787DE664808E
:1006670094815002761EC3787CE6648094815002A0
:10067700760CC3787DE6648094815018787BE6FF1A
:1006870075F004120315AFF0EF6009787CE6B40249
:100697000308761CC3787DE6648094815018787BC4
:1006A700E6FF75F004120315AFF0EF7009787CE6EA
:1006B700B4020308761DC3787EE6648094805002F6
:1006C7007617787FE6B4FF02763B7880E6B4FF02C0
:1006D700763B788BE6B4FF027606E47888F68003EB
:1006E7007535017885E67015E50C450B700F7BFFB6
:1006F7007A1379F37D017F01121D9B8012787BE6C7
:10070700FB3395E0FA7564027D017F01121DF978CC
:1007170085E6B40115E50C450B700F7BFF7A13795D
:10072700F37D047F01121D9B8012787CE6FB3395D5
:10073700E0FA7564027D047F01121DF97885E6B43D
:100747000215E50C450B700F7BFF7A1379F37D07D4
:100757007F01121D9B8012787DE6FB3395E0FA75C9
:1007670064027D077F01121DF97885E6B40315E55C
:100777000C450B700F7BFF7A1379F37D017F021213
:100787001D9B8012787EE6FB3395E0FA7564027D47
:10079700017F02121DF97885E6B40415E50C450BB7
:1007A700700F7BFF7A1379F37D047F02121D9B8004
:1007B70012787FE6FB3395E0FA7564027D047F02C9
:1007C700121DF97885E6B40515E50C450B700F7B0E
:1007D700FF7A1379F37D077F02121D9B80127880C1
:1007E700E6FB3395E0FA7564027D077F02121DF977
:1007F7007885E6B4060EE50C450B70087BFF7A1387
:1008070079E78012788BE675F003A42448F886030D
:1008170008E6FA08E6F97D0A7F01121D9B7BFF7A3D
:100827001379E37D037F01121D9B7BFF7A1379E325
:100837007D067F01121D9B7BFF7A1379E57D037F80
:1008470002121D9B7BFF7A1379E57D067F02121D3D
:100857009BE50C6401450B7021788676017F0A7E43
:1008670000121DBE12197E7884A607788606E6D385
:10087700941940E9E4F50BF50C22E50C450B7021C2
:10088700788776017F147E00121DBE12197E788448
:10089700A607788706E6D3941940E9750B00750C0F
:0208A70001222C
:1017C1007BFF7A14792B7D017F01121D9B7BFF7AB0
:1017D10014793D7D097F02121D9B121F03121D1EEC
:1017E1008F318E308D2F8C2EE4FFFEFDFCAB31AAA4
:1017F10030A92FA82E1201CC501E7B2D7D017F0216
:10180100121F26AF31AE30AD2FAC2E1202458F31F3
:101811008E308D2F8C2E80097B2B7D017F02121F34
:1018210026AF31AE30AD2FAC2E120294AB07AA0613
:101831007564037D027F02121DF97B2E7D057F02F7
:10184100121F26E4FFFE7DC87C42AB31AA30A92FCE
:10185100A82E120026120294E47B64FAF9F812040D
:10186100077564027D067F02121DF97B437D087FA7
:0418710002021F262A
:1012A6007F017E00121DBE12197E7884A6077BFF81
:1012B6007A1479437D017F01121D9B7BFF7A137996
:1012C600E57D037F02121D9B7BFF7A1379E57D0680
:1012D6007F02121D9B7BFF7A1379E57D097F02123F
:1012E6001D9B7888E6FF644560077884E6FEB402B5
:1012F60008E4F536750D018029EF64446004EEB408
:101306000308E4F536750D0280187888E6640760F0
:10131600067884E6B40408E4F536750D0380037593
:101326003501E50D6401703B0510E51030E004055C
:10133600110511E510C3940A4005E4F5100528E5EA
:1013460028C3943C4005E4F528052BE52BC3943CC3
:101356004005E4F52B052AE52AC394184023E4F555
:101366002A801EE50DB40205E4F50D8014E50DB4E2
:10137600030FE4F511F510F528F52BF52AF58BF595
:101386008DE52AFB7A007564027D017F02121DF944
:10139600E52BFB7A007564027D047F02121DF9E5D8
:1013A60028FB7A007564027D077F02121DF9E5109D
:1013B600FB7A007564017D0A7F02121DF9E511FBB7
:1013C6007A007564017D0B7F02121DF9E534FB7A04
:0B13D600007564027D0E7F02021DF90D
:101516007BFF7A14795A7D017F01121D9B7BFF7A2E
:101526001379E57D037F02121D9B7BFF7A1379E514
:101536007D067F02121D9B7BFF7A1379E77D097F6B
:1015460002121D9B7F847E03121DBE751C01E51CC5
:101556006042E5237008E5247004E525603615250C
:10156600C3E52564809480500575253B1524C3E5A5
:1015760024648094805011E523600775243B15236D
:101586008006E5237002F524C3E523648094805029
:1015960003E4F523E4F51CE523FB3395E0FA7564D3
:1015A600027D017F02121DF9E524FB3395E0FA75F1
:1015B60064027D047F02121DF9E525FB3395E0FAEE
:1015C6007564027D077F02121DF9E5237032E5245A
:1015D600702EE525702AF532F533D2A07F027E0003
:1015E600121DBEC2A07F027E00121DBE0533E5336A
:1015F60070020532C3941EE532940040DDE4F539ED
:0D1606007BFF7A1379E77D097F02021D9BAF
:100E3F007BFF7A14795A7D017F01121D9B7BFF7A0C
:100E4F001379E57D037F02121D9B7BFF7A1379E5F2
:100E5F007D067F02121D9B7BFF7A1379E77D097F49
:100E6F0002121D9BE5397014E527B4010F7BFF7A41
:100E7F001379F37D017F02121D9B8011E523FB3354
:100E8F0095E0FA7564027D017F02121DF9E539B410
:100E9F000114E527B4010F7BFF7A1379F37D047FEB
:100EAF0002121D9B8011E524FB3395E0FA75640255
:100EBF007D047F02121DF9E539B40214E527B40150
:100ECF000F7BFF7A1379F37D077F02121D9B801131
:100EDF00E525FB3395E0FA7564027D077F02121D4D
:100EEF00F97884E6FF640260077888E6FEB4430A67
:100EFF00E4F53605395339038076EF64036005EE68
:100F0F0064097030E4F53674232539F806D3E523E8
:100F1F00648094974003E4F523D3E524648094BB65
:100F2F004003E4F524D3E525648094BB4003E4F546
:100F3F0025E4803C7884E6640460077888E66415CD
:100F4F007033E4F53674232539F816C3E52364802E
:100F5F0094805003752317C3E52464809480500355
:100F6F0075243BC3E52564809480500375253BE4CD
:100F7F007888F68003753501E527B4011F788976E7
:100F8F00017F0A7E00121DBE12197E7884A6077893
:100F9F008906E6D3941940E9E4F52722E527701E68
:100FAF00788A76017F0F7E00121DBE12197E78841B
:0F0FBF00A607788A06E6D3941940E97527012220
:101613007BFF7A1379E57D037F02121D9B7BFF7AA3
:101623001379E57D067F02121D9BE51DFB7A00758C
:1016330064017D017F02121DF9E51EFB7A007564CA
:10164300017D027F02121DF9E51FFB7A007564011B
:101653007D047F02121DF9E520FB7A007564017D8C
:10166300057F02121DF9E521FB7A007564017D07F0
:101673007F02121DF9E522FB7A007564017D087F64
:1016830002121DF912197E8F147BFF7A14796C7D77
:10169300017F01121D9BE514640260067888E6B49D
:1016A3001909E4F536752C017888F6E514640360AE
:1016B300077888E6640D7031E4F536E51D75F00AA8
:1016C300A4251EF53DE51F75F00AA42520F53EE58A
:1016D3002175F00AA42522F53F7BFF7A14797D7DDD
:0A16E3000A7F02121D9B121AF0226A
:101A42007BFF7A1479817D017F01121D9B7BFF7AD6
:101A52001479987D017F02121D9B7BFF7A1479987D
:101A62007D047F02121D9B7BFF7A1379E77D097F3C
:101A720002121D9B7F847E03121DBE150AE50AFB1E
:101A82007A007564027D077F02121DF9E50A70E48F
:071A9200750A0A75340922F0
:101D4A00E5379014E493FFF4601F8F380537E537C1
:101D5A009375F07DA4FFAEF0121DBE0537C28E7FCB
:0B1D6A00057E00121DBED28E2280FEFE
:1011590012000612001E121EF3121EB4121F5112A3
:101169001F1B121E4E7FC0121B448F12E512700CFA
:10117900121AF07D017C007FC0121A9912197E782B
:1011890084A6077888E6644660067884E6B4011385
:10119900E4F5360534E534D394074003753401E4A6
:1011A9007888F67888E6FFB41606E4F534F6804FB9
:1011B900EFB40C05753401803DEFB41805753402A0
:1011C9008034EFB45E05753403802BEFB4080575E0
:1011D90034048022EFB41C057534058019EFB45A24
:1011E900057534068010EFB442057534078007EFA2
:1011F900B45209753408E47888F68003753501E539
:1012090034FB7A007564027D0E7F02121DF9E53404
:10121900B40904D2AB8002C2ABE534B40A00506D04
:10122900901230F828287302124E02125A021262E2
:1012390002126702126C0212710212760212850200
:10124900128C0212917FFA7E00121DBE121BD580EC
:101259003C120FCE1216ED80341208A9802F120409
:10126900A7802A1217C180251212A68020E539B459
:1012790003051215168016120E3F8011C2AB121605
:1012890013800A121A428005D2AB121D4AE5357045
:0D129900067888F6021185E4F5350211850E
:03001B00021B9233
:101B9200C0E0C083C082C0D075D000C006E5346406
:101BA200097025E53825E0249CF582E43414F58398
:101BB200E493FE740193F58BEEF58D0519E519702A
:101BC20002051830E002B2A0D006D0D0D082D08375
:031BD200D0E0322E
:03000300020CA24A
:100CA200C0E0C0F0C083C082C0D075D000C000C018
:100CB20001C002C003C004C005C006C0077881E6B7
:100CC2007011FFFE121F107F01121F4B78817601F7
:100CD200020DEE7881E66401704C121F307882A614
:100CE2000608A607E4FFFE121F107882E6FE08E659
:100CF200FFD394C8EE9432400FEF94B0EE94365086
:100D02000778817602020DEED3EF94FEEE9429501D
:100D120003020DEEEF94E6EE942D4003020DEE7801
:100D22008E7601020DEA7881E664026003020DEE1E
:100D3200121F307882A60608A607E4FFFE121F10D3
:100D42007882E6FE08E6FFD3946CEE94024027EF29
:100D52009454EE9406501F788FE6FF131313541F1A
:100D62002492F9EF5407FF7401A807088002C333E5
:100D7200D8FCF45780337882E6FE08E6FFD394D697
:100D8200EE9406402AEF94BEEE940A5022788FE643
:100D9200FF131313541F2492F9EF5407FF7401A891
:100DA20007088002C333D8FC47F7788F068008789B
:100DB2008F760078817601788FE6C39420402D7675
:100DC200007893E6F4FF18E6FEB507177895E6F487
:100DD200FF18E6FDB5070C7896A6067888A6057872
:100DE200917601E4FF121F4B78817600E5346409A5
:100DF2007030E53825E0249CF582E43414F58374E0
:100E020001937002E493601AE53825E0249CF58290
:100E1200E43414F583E493FE740193F58BEEF58DBF
:100E2200B2A0D007D006D005D004D003D002D001A2
:0D0E3200D000D0D0D082D083D0F0D0E032FC
:03002300021901BE
:10190100C0E0C0F0C083C082C0D075D000C000C0AC
:0D19110001C002C003C004C005C006C0072D
:10191E00309842741D2509F8A6990509E50970024B
:10192E000508640645087004F508F50912197E8F3E
:10193E0014E5146402600C7888E664196005E52CE1
:10194E00B40110750800750900753600752C007805
:05195E00887600C2982C
:10196300D007D006D005D004D003D002D001D000D8
:0B197300D0D0D082D083D0F0D0E03282
:101E160053554E004D4F4E0054554500574544000E
:0C1E2600544855004652490053415400F6
:101A1800073A150B09063B37001548FF1E16FF1E2F
:101A28001AFF1E1EFF1E22FF1E26FF1E2AFF1E2E45
:091A380007418C88868482808AB3
:05001E00C292C2902215
:061A99008C618D62AB07B9
:101A9F00D292E4FD74017E00A805088005C333CE01
:101AAF0033CED8F9FFEBF582EF558224FF9291D216
:101ABF0090C2900DBD08DDE4FD74017E00A80508FD
:101ACF008005C333CE33CED8F9FFE5615EFEE56204
:101ADF005F4E24FF9291D290C2900DBD08DBC2924F
:011AEF0022D4
:021B4400AD07EB
:101B4600E4F9430501D292FB74017E00A8030880E4
:101B560005C333CE33CED8F9FFEDF582EF55822497
:101B6600FF9291C290D2900BBB08DDC291E4FBD2EA
:101B760090C29030910D7401A803088002C333D837
:0B1B8600FC42010BBB08E8C292AF015B
:011B91002231
:0D1AF000E4FDFC7F8E121A99E4F55EF55FAF
:101AFD00AF5F743A2FF8E6FE75F00A120315C45461
:101B0D00F0FDEE75F00A120315AEF0ED2EF56074D2
:0D1B1D00412FF8E6FFE560FD7C00121A99EB
:101B2A00055FE55F7002055EC39407E55E940040B9
:0A1B3A00C27D807C007F8E021A99A4
:031CEE00E4F55DBD
:101CF1007441255DF8E6FF121B448F60E560C45412
:101D01000F75F00AA4FFE560540F2FFF743A255DAB
:031D1100F8A6072A
:0A1D1400055DE55DC3940740D4228D
:101DBE00D3EF9400EE940040147D6E7C00ED1D7008
:0D1DCE00011CED4C70F7EF1F70E61E80E366
:011DDB0022E5
:10197E0020B3147F147E00121DBE30B3FD7F147E83
:10198E0000121DBE757A0120B4147F147E00121D44
:10199E00BE30B4FD7F147E00121DBE757A0220B5D6
:1019AE00147F147E00121DBE30B5FD7F147E001212
:1019BE001DBE757A0320B6147F147E00121DBE3034
:1019CE00B6FD7F147E00121DBE757A04E5367005D5
:0719DE00F57A753601AF7ABE
:0119E50022DF
:101EF3005389F0438901E4F58CF58AC28DC28C22A3
:0B1F1000AD07AC068C8CAF058F8A2259
:091F3000AF8CEFFEAD8AEDFF223B
:061F4B00EF24FF928C223E
:101EB40053890F438910758DFF758B9CC28FD28E09
:071EC400D2AFD2ABD2BB226A
:031F5100021F1B51
:0B1F1B00D288C289D2A8D2AFD2B8226F
:0D1F0300121E697FCC121E837F44021E83D4
:101D1E00121E697FCC121E837FBE121E83121DDC23
:101D2E008F60121DDCEFFEE560FFFDAC06EC1202CB
:0B1D3E005BE4FBFA7980784112012F72
:011D49002277
:101E6900D2B7C2B77FF7DFFED2B77F20DFFEA2B7B6
:091E7900E433FE7FF7DFFEAF0643
:011E8200223D
:101EE100C2B77E04DEFEEF24FF92B77E18DEFED27B
:011EF100B739
:011EF20022CD
:101E9C00C2B77F02DFFED2B77F02DFFEA2B7E43308
:071EAC00FE7F18DFFEAF0608
:011EB300220C
:021E8300AD07A9
:101E8500E4FC7401A804088002C333D8FC5DFF128A
:061E95001EE10CBC08EC8C
:011E9B002224
:101DDC00E4FDFC121E9CEF600D7401A80408800247
:0C1DEC00C333D8FC42050CBC08E9AF056D
:011DF80022C8
:091F3900E51B7002FF227F01226A
:081F42007F027EEFDEFEDFFCF2
:011F4A002274
:101E3200AE07121F39EF24FF92A4C2A7C2A5C2A601
:0C1E42008E80D2A7121F42C2A7021F42CE
:101D7500CFCDCFCECCCE1203767C007D0A12037672
:041D8500ED2430FF1A
:101D8900C2A7D2A5C2A68F80D2A7121F42C2A7029C
:021D99001F42E7
:101ECB00AE07BE0104ED148006BE0209ED243F44AB
:061EDB0080FF121E3222FE
:100006007F38121E327F0C121E327F06121E327F7E
:0400160001021E3293
:0A1F2600AC03121ECBAF04021D89AC
:061D9B008B608A61896281
:101DA100121ECBE4FDAB60AA61A9628D827583002E
:0C1DB100120337FF6006121D890D80E947
:011DBD002203
:0C1CBB007F0AEA24FFFDE434FFFC7E00F9
:081CC7008E658F668C678D6845
:101CCF007F017E00E4FBEBC39568E5676480F874E1
:0E1CDF008098500AAC65AD661203640B80E875
:011CED0022D4
:041DF9008A628B630C
:101DFD00121ECBAA64EAD39400400D121CBBAC6238
:081E0D00AD63121D751A80ED92
:011E150022AA
:101C1000121ECBC3EA64809480400B7F2B121D8977
:101C20008A6E8B6F800E7F2D121D89C3E49BF56F2A
:101C3000E49AF56EAA6DEAD39400400D121CBBAC79
:091C40006EAD6F121D751A80EDE6
:011C49002278
:041C4A008A728B739C
:101C4E00121ECBAA74EAD3940040297F10121CBD39
:101C5E00AC72AD73CFCDCFCECCCE120376EF540F88
:101C6E00FEC3940AEE5004243080022437FF121D66
:041C7E00891A80D16E
:011C8200223F
:041C83008A778B7859
:101C8700121ECBAA79EAD394004028EA24FFFDE488
:101C970034FFFC7F027E00121CC7AC77AD78CFCD36
:101CA700CFCECCCE120376EF54012430FF121D891C
:031CB7001A80D2BE
:011CBA002207
:101E4E0075985043878053890F438920758BF3759E
:0B1E5E008DF3C2ABD28ED2AFD2AC220B
:10002600EC4D6011E8497017ED33EC3304600DE4D4
:10003600FCFFFEFD22E933E8330470F802030012E8
:1000460002CB58046009E4CC2481500628500902EA
:10005600030A284003020307C0E0EB4A7044B98054
:1000660006D0E0FB0202F6EF4E701CBD8008EBFFE7
:10007600EAFEE9FD80EBE98DF0A4FEE5F002010F52
:10008600E9CDF9EAFEEBFFEF89F0A4FCE5F0CE89B5
:10009600F0A42EFFE435F0CD89F0A42DFEE435F072
:1000A6008067EF4E7005BD80D780C3EF8BF0A4ACA0
:1000B600F0EE8BF0A42CFCE435F0F8EF8AF0A42CDB
:1000C600E5F038FCE433CB8DF0A42CFCE5F03BF8EE
:1000D600EE8AF0A42CFCE5F038F8E433CF89F0A4DE
:1000E6002CFCE5F038CF3400CE89F0A42FFFE5F0E4
:1000F6003EFEE433C98DF0A42EFEE5F039CD8AF03C
:10010600A42FFFE5F03EFEE43DFD33D0E0FB5007B3
:100116000BBB000F02030AEC2CFCEF33FFEE33FEA1
:06012600ED33FD0202E2D0
:10012C0002030AEC5D046005E85904700302030045
:10013C001202CB580460F6EC4860F2EC7004FDFE41
:10014C00FF22C860DB2481C85009C39860025006A6
:10015C000203079850CAF582E9294B4A7005AB8215
:10016C000202F675F0007C1A7880C3EF9BEE9AEDD4
:10017C0099400DC3EF9BFFEE9AFEED99FDE842F01E
:10018C00DC23ACF0D0E0FFD0E0FED0E0FDAB822071
:10019C00E7101BEB60BAEC2CFCEF33FFEE33FEEDFB
:1001AC0033FD0202E2E803F830E705C0F075F00019
:1001BC00EF2FFFEE33FEED33FD40B830E7C280AADF
:1001CC0074F8CC6480CCC86480C8F58204604FC3DA
:1001DC00EB9FF5F0EA9E42F0E99D42F0E89C45F079
:1001EC00603C501DE5825FFFE582D313CB5BCBF403
:1001FC002B5582FB50280ABA002409B9002008802C
:10020C001DE5825BFBE582D313CF5FCFF4C3132FC5
:10021C005582FF50090EBE00050DBD00010CC3EB4D
:10022C009FF5F0EA9E42F0E99D42F0E89C45F060B3
:09023C0007CC4820E701B3EC22D5
:10024500ED33EC33600A047003BD8004ECB2E7FCC7
:010255002286
:1002560075F020800E75F010800575F0087D007E23
:10026600007F003392D530D503120499EC33401049
:10027600EF33FFEE33FEED33FDEC33FCD5F0ED222C
:0E028600E5F0247EA2D513CC92E7CDCEFF2268
:10029400EDD2E7CD33EC3392D524814006E4FFFE62
:1002A400FDFC22FCE4CFCECDCC24E0501174FF80C1
:1002B400EDC3CC13CCCD13CDCE13CECF13CF04705E
:0702C400F030D5DE020499C1
:1002CB00E9D2E7C933E833F892D5EDD2E7CD33EC79
:0702DB0033FC5002B2D522F2
:1002E200EC30E7100FBF000C0EBE00080DBD00047D
:1002F2000BEB6014A2D5EB13FCED92E7FD2274FF29
:10030200FCFDFEFF22E480F8A2D574FF13FC7D8081
:03031200E480EF95
:030000000218756E
:0C187500787FE4F6D8FD7581960218BC5F
:10031500C2D530F707B2D563F0FF05F030E70CB270
:10032500D5F4048463F0FF05F080018430D502F430
:020335000422A0
:10033700BB010CE58229F582E5833AF583E022507B
:1003470006E92582F8E622BBFE06E92582F8E222C5
:0D035700E58229F582E5833AF583E49322DF
:10036400EF8DF0A4A8F0CF8CF0A428CE8DF0A42EAD
:02037400FE2267
:10037600BC000BBE0029EF8DF084FFADF022E4CC6B
:10038600F875F008EF2FFFEE33FEEC33FCEE9DEC34
:10039600984005FCEE9DFE0FD5F0E9E4CEFD22ED7A
:1003A600F8F5F0EE8420D21CFEADF075F008EF2FC4
:1003B600FFED33FD4007985006D5F0F222C398FDB5
:0503C6000FD5F0EA2252
:1003CB0075F008758200EF2FFFEE33FECD33CDCCE9
:1003DB0033CCC58233C5829BED9AEC99E58298406C
:1003EB000CF582EE9BFEED9AFDEC99FC0FD5F0D649
:1003FB00E4CEFBE4CDFAE4CCF9A88222B800C1B973
:10040B000059BA002DEC8BF084CFCECDFCE5F0CBB0
:10041B00F97818EF2FFFEE33FEED33FDEC33FCEBE9
:10042B0033FB10D703994004EB99FB0FD8E5E4F9A4
:10043B00FA227818EF2FFFEE33FEED33FDEC33FC91
:10044B00C933C910D7059BE99A4007EC9BFCE99A85
:10045B00F90FD8E0E4C9FAE4CCFB2275F010EF2FCA
:10046B00FFEE33FEED33FDCC33CCC833C810D707CA
:10047B009BEC9AE899400AED9BFDEC9AFCE899F805
:0E048B000FD5F0DAE4CDFBE4CCFAE4C8F92298
:0E049900C3E49FFFE49EFEE49DFDE49CFC2274
:10188100021159E493A3F8E493A34003F68001F213
:1018910008DFF48029E493A3F85407240CC8C33368
:1018A100C4540F4420C8834004F456800146F6DF37
:1018B100E4800B01020408102040809019E6E47EC8
:1018C100019360BCA3FF543F30E509541FFEE4932C
:1018D100A360010ECF54C025E060A840B8E493A3F3
:1018E100FAE493A3F8E493A3C8C582C8CAC583CA1E
:1018F100F0A3C8C582C8CAC583CADFE9DEE780BED6
:011A410000A4
:00000001FF
